:020000040800F2
:10000000D06D002071020008B11E00082B1C0008F2
:100010002D1D0008790600080924000800000000D2
:10002000000000000000000000000000C101000806
:100030007B0600080000000005020008D31E00082F
:100040008B0200088B0200088B0200088B0200085C
:100050008B0200088B0200088B0200088B0200084C
:100060008B0200083D070008430700088B020008C8
:100070008B0200088B0200088B0200088B0200082C
:100080008B0200088B0200088B0200088B0200081C
:100090008B0200088B0200088B0200084907000849
:1000A0008B0200088B0200088B0200088B020008FC
:1000B0008B020008951F00088B0200088B020008C5
:1000C0008B0200088B0200088B0200088B020008DC
:1000D0008B0200088B0200088B0200088B020008CC
:1000E000350700088B0200088B0200088B0200080D
:1000F0008B0200088B0200088B0200088B020008AC
:100100008B0200088B0200088B0200088B0200089B
:100110008B0200088B0200088B0200088B0200088B
:100120008B0200088B0200088B0200088B0200087B
:100130008B0200088B0200088B0200088B0200086B
:100140008B0200088B0200088B0200088B0200085B
:100150008B0200088B0200088B0200088B0200084B
:100160008B0200088B0200088B0200088B0200083B
:100170008B0200088B0200088B02000800000000C0
:100180008B0200088B0200088B0200088B0200081B
:100190008B0200088B0200088B0200088B0200080B
:1001A0008B0200088B0200088B020008DFF80CD0DD
:1001B00000F018F90048004729240008D06D0020FD
:1001C000234B19680868B0E8F04F80F309884FF0B6
:1001D000000080F3118870470000000003480068A9
:1001E000006880F3088862B600DF00BF08ED00E019
:1001F000DFF80C00016841F470010160704700BF36
:1002000088ED00E0EFF30980114B1A681EF0100F23
:1002100008BF20ED108A20E9F04F106008B44FF0BD
:10022000500080F3118802F0B5FF4FF0000080F31A
:10023000118808BC19680868B0E8F04F1EF0100F6C
:1002400008BFB0EC108A80F30988704700BF00BF78
:10025000B0000020EFF311804FF0500181F31188BE
:10026000704780F311887047EFF3058070470000F6
:100270000648804706480047FEE7FEE7FEE7FEE740
:10028000FEE7FEE7FEE7FEE7FEE7FEE7411F0008A8
:10029000AD01000840EA01039B0703D009E008C94B
:1002A000121F08C0042AFAD203E011F8013B00F83B
:1002B000013B521EF9D27047D2B201E000F8012B87
:1002C000491EFBD270470022F6E710B513460A46D6
:1002D00004461946FFF7F0FF204610BD0EB540F268
:1002E000334102910021CDE900110A460B4600F08E
:1002F0002AF803B000BD000030B5041E71F10004FF
:1003000004DB4FF00044404264EB0101141E73F122
:10031000000405DB1C464FF00043524263EB04032C
:100320008B4208BF824230BD10B5141E73F1000429
:1003300008DA401C41F1000192185B411A4301D1D7
:1003400020F0010010BD2DE9F04D92469B4611B101
:10035000B1FA81F202E0B0FA80F22032904600F069
:1003600053F804460F4640EA0A0041EA0B0153469F
:100370005A46084313D0114653EA010019D0C8F178
:100380004002504600F04FF805460E46504659468A
:10039000424600F039F8084305D0012004E0204629
:1003A0003946BDE8F08D0020054346EAE0762C434F
:1003B00037430A986305E40AA0EB08000022FD0A0F
:1003C00044EA47540A3002D500200146E9E7010516
:1003D00010196941DDE9084500196941BDE8F04D92
:1003E000A2E70000064C074D06E0E06840F001037C
:1003F00094E8070098471034AC42F6D3FFF7DAFED2
:10040000EC3A00080C3B0008202A04DB203A00FAF2
:1004100002F1002070479140C2F1200320FA03F35B
:10042000194390407047202A04DB203A21FA02F059
:100430000021704721FA02F3D040C2F1200291401E
:100440000843194670470000434910B5D1F804230A
:1004500022F44032C1F80423D1F8042343681A433C
:10046000C1F8042301684A6822F480724A60016876
:100470004A68036942EA03224A6001684A6822F036
:1004800040724A6001684A6883681A434A6001689A
:100490008A6822F400628A6001688A68C3681A4325
:1004A0008A6001688A6822F070628A6001688A68DE
:1004B000036B1A438A6001688A6822F040528A609E
:1004C00001688A68C36A1A438A6001688A6822F0F0
:1004D00002028A6001688A68836942EA43028A608C
:1004E000416A002901684A680FD042F400624A60FC
:1004F00001684A6822F460424A6001684A68174C01
:10050000836A04EB43331A4301E022F400624A6039
:100510000168CA6A22F47002CA620168CA6A038C5E
:100520000F4C04EB03531A43CA6201688A6822F431
:1005300000728A6001688A68C36942EA43228A605D
:1005400001688A6822F480628A6001688A6840696A
:1005500042EA8020886010BD0020014000E0FFFFDB
:100560000000F0FF0948084901604FF4E1314160A3
:1005700000218160C160016181610C2141610146FE
:10058000002000F005B800000048004018010020DD
:1005900070B504002E480D4686B0016846D041F083
:1005A00040010160016841F04001016028481430B9
:1005B000016841F02001016026480226694630F8B2
:1005C0001400CDE900060120CDE9020621480830DB
:1005D00030F814000490204850F8240000F0A2FAEB
:1005E0001C486946001D30F81400CDE90006194882
:1005F0000C3030F8140004901748083050F82400EC
:1006000000F090FAFCB147200022052100F0D4FB55
:10061000DCB1472000F0C5FB0F48083850F8240033
:100620002860284601F0D2FA06B070BD41F0020100
:100630000160016841F00201016005481030016865
:1006400041F48021B7E72720DEE72720E2E700001A
:1006500030380240C43A00080C0000200449054A22
:1006600031F8101052F82000002200F072BB000098
:10067000D43A00081C000020FEE77047C82002F0B2
:1006800055F800252A4C4FF03A0840F2AA570126A7
:100690001E2002F04BF801F0C9FA62694046B2FB35
:1006A000F0F1491E112901D2A66300E0A563216A79
:1006B000B1FBF0F1491E0C2901D2666300E06563CD
:1006C000E16AB1FBF8F0401E112801D2E66300E0B8
:1006D000E563206E401C20669628D9D3E06C78B97B
:1006E000392A0DD9BA420BD2E06B48B9606B38B9E0
:1006F000206C28B9606D012802D12566E664656525
:10070000A06C0028C4D13929C2D9B942C0D2A06B8B
:100710000028BDD1606B0028BAD1606C0028B7D129
:10072000206D0128B4D12566A6642565B0E70000D8
:10073000440000204FF4004000F0E8B9082000F029
:10074000E5B9102000F0E2B9202000F0DFB9000088
:1007500070B5164C86B0206840F001002060144D42
:1007600000264FF400408DE861006946114800F012
:10077000D9F900220221282000F01EFB282000F0D9
:1007800010FB206840F00200206038208DE86100F6
:100790006946094800F0C6F9002202210A2000F04B
:1007A0000BFB0A2000F0FDFA06B070BD30380240A5
:1007B00000001110000002400004024030B590F823
:1007C0003C20012A19D0012280F83C200A68072326
:1007D0000468092A13D9E5680A3A02EB42029340F9
:1007E0009D43E5600A788B680A3A02EB4202934027
:1007F0000268D4682343D36010E0022030BD25692D
:1008000002EB420293409D4325610A788B6802EB1C
:100810004202934002681469234313614A681F230C
:10082000072A12D20468656B521E02EB82029340C3
:100830009D4365630A790B68521E02EB8202934066
:100840000268546B2343536325E004680D2A11D2D8
:10085000256BD21F02EB820293409D4325630B79E7
:100860000A68DB1F03EB83039A4003681C6B224377
:100870001A6310E0E56A0D3A02EB820293409D4351
:10088000E5620B790A680D3B03EB83039A4003682A
:10089000DC6A2243DA62104A0368934208D10B688B
:1008A000122B05D1D2F8043343F48003C2F8043389
:1008B000036893420AD10968102901D0112905D192
:1008C000D2F8041341F40001C2F80413002180F8A7
:1008D0003C10084630BD0000002001400068C06C9C
:1008E000704710B5040003D094F83D0010B104E047
:1008F000012010BD204600F00FF8022084F83D00D2
:100900002046FFF7A1FD00202064012184F83D105E
:1009100084F83C0010BD00002DE9F0430646234D4D
:1009200000682149214C143D0327DFF8849085B0ED
:100930004FF0000888420ED1206840F480602060AB
:10094000286840F00400286002208DE88101694693
:10095000484600F0E7F81749306888420ED1206811
:1009600040F400702060286840F0040028601020E7
:100970008DE881016946484600F0D4F80E49306898
:1009800088420ED1206840F480702060286840F0D2
:100990000400286020208DE881016946484600F067
:1009A000C1F805B0BDE8F0830022014044380240A0
:1009B00000080240002101400020014070B50D46B2
:1009C000044600F0CBF946190DE0681C0BD000F08E
:1009D000C5F9B04207D3032084F83D00002084F815
:1009E0003C00032070BD206800688007EDD594F8B6
:1009F0003D00252804D0152084F83D00002070BD5E
:100A00003520F9E790F83C200021012A0FD001227F
:100A100080F83C2090F83D20222A0AD05FF0120294
:100A200080F83D2002689368DB0704D00EE00220C6
:100A300070473222F4E7936843F0010393604FF468
:100A4000077200BF491C89B29142FAD90B4AD2F809
:100A50000413C90605D00168914209D1C26A1AB1CE
:100A600006E0C16A21B901688A6842F080428A6062
:100A7000002180F83C10084670470000002001402B
:100A80002DE9F04100271F4A03261F4C44F620653C
:100A900010281CD0B0F5004F0FD10821104600F0EF
:100AA00053F9207058B1012807D16088401C80B2EA
:100AB00060802670A84200D16780BDE8F081608820
:100AC00000B965806088401E60802670F5E72021AF
:100AD000104600F039F9607020B10128EDD1A088EE
:100AE00048B109E0A088401C80B2A0806670A8428E
:100AF000E3D1A780E1E7A580A088401EA0806670B2
:100B0000DBE700000004024044000020044910B567
:100B10000A68024202D00860FFF7B2FF10BD000071
:100B2000143C01402DE9F04F0022DFF8E8E10125F7
:100B30004FF0030B4FF00F0A0B6805FA02F4234045
:100B4000A3427DD14E68022E01D0122E14D1560739
:100B50000F694FEAD66C07FA0CF9D60800EB860647
:100B6000376A0AFA0CF827EA08073762D6F820C075
:100B70004CEA090CC6F820C0D0F800C056000BFAA9
:100B800006F72CEA070CC0F800C091F804C0D0F8B2
:100B900000800CF0030C0CFA06FC4CEA080CC0F8C0
:100BA00000C0D1F804C0BCF1010F08D0BCF1020FA5
:100BB00005D0BCF1110F02D0BCF1120F1FD1D0F83B
:100BC00008C02CEA070CC0F808C0D1F80CC0D0F857
:100BD00008800CFA06FC4CEA080CC0F808C0D0F8F3
:100BE00004C02CEA040CC0F804C0D0F804C00C798E
:100BF000C4F3001494404CEA040CC0F804C0C46868
:100C0000BC43C4608C68B440C6683443C4604C685C
:100C1000E40079D5404C266846F480462660940767
:100C2000270F3E4C22F0030C64440AFA07F6D4F86E
:100C300008C82CEA060CC4F808C8394EB04200E0D7
:100C400062E001D100262DE0364EB04201D10126EE
:100C500028E0354EB04201D1022623E0334EB042A7
:100C600001D103261EE0324EB04201D1042619E024
:100C7000304EB04201D1052614E02F4EB04201D1D2
:100C800006260FE02D4EB04201D107260AE02C4E79
:100C9000B04201D1082605E02A4EB04201D1092612
:100CA00000E00A26BE40D4F808783E43C4F808683D
:100CB000DEF8006074469E43CEF80060154E361D87
:100CC00037689F4337604F68FF0302D527681F438B
:100CD00027604C68A40302D534681C4334600D4C73
:100CE000083426689E432660261D37689F43376078
:100CF0004F68FF0202D527681F4327604C68A40293
:100D000002D534681C433460521C102AFFF414AF1F
:100D1000BDE8F08F003C0140443802400030014003
:100D2000000002400004024000080240000C0240A3
:100D3000001002400014024000180240001C024053
:100D400000200240002402400069084000D0012039
:100D500070470AB1018370474183704701480068BA
:100D600070470000400000200C4810B5016841F4B5
:100D700000710160016841F480610160016841F423
:100D8000807101604FF47A5000F068FB032000F09E
:100D900033F800F005F8002010BD0000003C0240D0
:100DA000704700F01F02012191404009800000F1CE
:100DB000E020C0F800117047F0B40E4B1B680C46E1
:100DC000C3F30223C3F10705042D00D90425191D1F
:100DD000072901D2002300E0DB1E012606FA05F1F7
:100DE000491E214099409E40761E16403143F0BC7A
:100DF00001F05FB80CED00E0064900F0070208685A
:100E00004FF6FF03184040EA0220034A10430860EF
:100E1000704700000CED00E00000FA052DE9F041FC
:100E20001348016841F080510160124F01263E6471
:100E3000FFF794FF00F57A750F4C03E0FFF78EFF84
:100E4000A8420DD26068C003F8D57E64FFF786FF24
:100E500000F57A7507E000BFFFF780FFA84202D3D4
:100E60000320BDE8F08160688003F5D50020F8E735
:100E70004038024000000E42007000402DE9F0476B
:100E8000DFF8A09105460E46D9F80000664C00F048
:100E90000F016548083406F0FF0841F28837B14277
:100EA00043D289F80080D9F8001001F00F01B14257
:100EB00075D12978C90724D06968012913D0006841
:100EC000022913D08007002876DA206820F003007A
:100ED00008432060FFF742FFC619686801280BD05D
:100EE000022813D01CE000688003ECE78001EAE7E9
:100EF000FFF734FFB0424FD22068C0F381000128D1
:100F0000F6D15BE0FFF72AFFB04245D22068C0F37C
:100F100081000228F6D151E0FFF720FFB0423BD21A
:100F2000206810F00C0FF7D148E02978C9073BD0B2
:100F30006968012913D00068022913D080070028AE
:100F40003ADA206820F0030008432060FFF706FF2C
:100F50000744686801280BD0022813D020E00068FD
:100F60008003ECE78001EAE7FFF7F8FEB84213D20E
:100F70002068C0F381000128F6D115E0FFF7EEFEEE
:100F8000B84209D22068C0F381000228F6D10BE0F4
:100F9000FFF7E4FEB84203D30320BDE8F0870BE07F
:100FA000206810F00C0FF3D189F80080D9F8000008
:100FB00000F00F00B04201D00120EEE72878800752
:100FC00005D52068A96820F0F00008432060287843
:100FD000400705D52068E96820F4E0500843206008
:100FE0002878000706D52068296920F4604040EA87
:100FF000C100206000F01CF84FF47A71B0FBF1F0F2
:10100000401EB0F1807F0AD24FF0E0214861074ACC
:10101000F02082F8140D002088610720086100206C
:10102000BBE70000003C0240003802400FE000E057
:1010300000B500F043F808490968F02292FAA2F2DC
:1010400001F0F001B2FA82F2D140044A515CC8408A
:101050000349086000BD000008380240DC3A00087F
:101060002C00002000B5FFF7E3FF074909684FF4A3
:10107000E05292FAA2F201F4E051B2FA82F2D140C7
:10108000024A515CC84000BD08380240DC3A000802
:1010900000B5FFF7CDFF074909684FF4604292FAA7
:1010A000A2F201F46041B2FA82F2D140024A515CEC
:1010B000C84000BD08380240DC3A000830B51D4881
:1010C000006810F00C011C481AD01C4C042916D0E2
:1010D000082915D11749091F0A6802F03F030A6859
:1010E00002F480054FF4800292FAA2F2B2FA82F280
:1010F000D54047F6C07204D0B4FBF3F003E02046BD
:1011000030BDB0FBF3F00B680968134092FAA2F20D
:10111000B2FA82F2D34058434FF4403292FAA2F22C
:1011200001F44031B2FA82F2D140491C4900B0FBCF
:10113000F1F030BD083802400024F40040787D0111
:101140002DE9F84F04460078DFF8FC92BF4DC00748
:101150004FF0000649D0D9F800104846C1F381018C
:10116000012908D00068C0F3810002280AD1281D97
:101170000068400206D52868800336D560680128DB
:1011800074D132E0DFF8C4A20AF1020A8AF80060E2
:10119000FFF7E4FD41F2883700EB070804E000BFE9
:1011A000FFF7DCFD40457BD228688003F8D4207926
:1011B0008AF800006068012803D0FFF7CFFD0744DC
:1011C00010E0FFF7CBFD074404E000BFFFF7C6FDCA
:1011D000B842E8D228688003F8D506E0FFF7BEFDE4
:1011E000B842E0D228688003F8D42078984F80076E
:1011F0004FF0010B43D5D9F80010484611F00C0F01
:1012000009D00068C0F3810002280BD18E48001F6E
:101210000068400206D42868800730D5E0680128BD
:10122000AED12CE0E068D8B1C7F800B0FFF796FD6A
:1012300000F1640804E000BFFFF790FD4045B2D222
:1012400028688007F8D52868F82292FAA2F2216966
:10125000B2FA82F220F0F8009140084328600EE0D4
:101260003E60FFF77BFD00F1640805E0EAE000BFA7
:10127000FFF774FD404513D228688007F8D4207822
:10128000000727D5DFF8C0A1724861690AF16C0A2E
:1012900089B1C0F800B0FFF761FD00F1640805E016
:1012A0007EE000BFFFF75AFD404579D2DAF8000032
:1012B0008007F7D50EE00660FFF750FD00F16408E7
:1012C00004E000BFFFF74AFD404569D2DAF80000AC
:1012D0008007F7D42078400752D55B483830016842
:1012E00041F080510160DFF870A1DAF8001041F49C
:1012F0008071CAF80010FFF731FD00F1640803E0C7
:10130000FFF72CFD40454BD2DAF80000C005F7D5B9
:10131000DFF8348108F1680888F80060FFF71EFDE7
:1013200041F2883A5044009005E000BFFFF716FDF7
:10133000009988427ED2D8F800008007F6D4207A3F
:1013400088F80000A068012803D0FFF707FD824459
:1013500012E0FFF703FD824404E000BFFFF7FEFC4C
:10136000504567D2D8F800008007F7D508E000BFE5
:10137000FFF7F4FC50455DD2D8F800008007F7D4A1
:10138000A069E8B3D9F80010C1F38101022959D04E
:1013900002283E6605D0FFF7E1FC00F164044CE052
:1013A00048E0FFF7DBFC00F1640603E0FFF7D6FC42
:1013B000B0423FD228688001F8D4D4E9071008432E
:1013C00047F6C07292FAA2F2616AB2FA82F29140D2
:1013D000A26A4FF0FF3303EB52024FF4403393FA0B
:1013E000A3F3B3FA83F39A40114308434FF07062BA
:1013F00092FAA2F2E16AB2FA82F29140084300E066
:101400001EE040F000511048001F0160C7F860B0B6
:10141000FFF7A4FC00F1640404E000BFFFF79EFCAA
:10142000A04207D228688001F8D509E0FFF796FCB2
:10143000A04202D30320BDE8F88F28688001F5D4CC
:101440000020F8E70120F6E70838024000380240A3
:1014500000004742800E47420070004010B5401E19
:10146000B0F1807F01D3012010BD4FF0E024606116
:101470000F21601700F01DFD0020A06107202061F2
:10148000002010BD704770472DE9F0410646006806
:101490004E49884275D14D4D307E20354C4C4FF62B
:1014A000FF774FF0000802282CD12868800608D466
:1014B0000421304600F067FBE060286840F020001F
:1014C0001FE0286880067ED50421304600F05BFBD3
:1014D0002061E168884202D9A0EB010003E004D258
:1014E000A7EB01010844606101E0C4F81480FFF734
:1014F000B9FD61694000B0FBF1F02063286820F07D
:1015000020002860307E04282CD12868800508D46B
:101510000821304600F037FBA061286840F40070D5
:101520001FE0286880054ED50821304600F02BFBCF
:10153000E061A169884202D9A0EB010003E004D276
:10154000A7EB01010844206201E0C4F82080FFF706
:1015500089FD216A4000B0FBF1F02063286820F487
:1015600000702860307E08282DD12868800409D4B6
:101570000C21304600F007FB6062286840F4005000
:1015800020E020E0286880041DD50C21304600F0C2
:10159000FAFAA062616A884202D9A0EB010003E076
:1015A00004D2A7EB01010844E06201E0C4F82C80FA
:1015B000FFF758FDE16A4000B0FBF1F020632868B6
:1015C00020F400502860BDE8F081000000040040D5
:1015D000440000202DE9F041044690F838000D4603
:1015E000012837D0012684F83860022084F83900B9
:1015F0007AB3042A40D02068082A4FD0D5E90032B7
:10160000E968076A27F480570762D0F81CC0076AA8
:101610002CF4407C4CEA022222F4704242EA01316E
:1016200027F4204242EA0332C16102622068C169A4
:1016300021F44061C1612068C169AA6841EA0221C0
:10164000C0F81C1084F83960002084F83800BDE828
:10165000F08101E00220FAE7D5E90012EB6820688A
:1016600000F0C0FD2068816921F00C0181612068D3
:101670008169AA6811430FE0D5E90012EB68206880
:1016800000F0F0FD2068816921F4406181612068EB
:101690008169AA6841EA02218161D3E7D5E9003C6A
:1016A000EA68016A21F480710162C169076A21F068
:1016B000030141EA0C0121F0F00141EA021127F493
:1016C000206242EA0322C16102622068C16921F0FE
:1016D0000C01C1612068C169AA681143B0E710B567
:1016E000040003D094F8390010B104E0012010BDCB
:1016F000204600F00DF8022084F83900211D2068F2
:1017000000F04EFC012084F83900002010BD0000DC
:10171000154800B5016885B041F00201016012482A
:101720001038016841F002010160016841F00101D7
:1017300001600320022100228DE80700CDE90301AA
:1017400069460A48FFF7EEF980200090694608488C
:10175000FFF7E8F9002205211D20FFF72DFB1D20D2
:10176000FFF71FFB05B000BD4038024000040240F7
:101770000000024010B50268044631B1042908D0C7
:10178000082915D00C2908D116E0D06840F00200D5
:1017900002E0D06840F00400D0600122206800F030
:1017A0005FFC2068016841F001010160002010BD6C
:1017B000D06840F00800EFE7D06840F01000EBE799
:1017C00070B50446006801694FF00005C9438907F8
:1017D00017D4C168C943890713D4016921F00201F4
:1017E000016101202076206880698007204602D0B0
:1017F000FFF74AFE04E000F0A0F8204600F076F97A
:10180000257620680169C943490718D4C168C943CE
:10181000490714D4016921F00401016102202076F6
:101820002068806910F4407F204602D0FFF72CFE2C
:1018300004E000F082F8204600F058F92576206890
:101840000169C943090717D4C168C943090713D4FB
:10185000016921F008010161042020762068806977
:101860008007204602D0FFF70FFE04E000F065F885
:10187000204600F03BF9257620680169C943C90676
:1018800018D4C168C943C90614D4016921F01001F4
:101890000161082020762068806910F4407F20468E
:1018A00002D0FFF7F1FD04E000F047F8204600F019
:1018B0001DF9257620680169C943C9070AD1C168A5
:1018C000C943C90706D1016921F001010161204620
:1018D00000F058F920680169C94309060AD4C168B3
:1018E000C943090606D4016921F08001016120463F
:1018F000FFF7C8FD20680169C94349060AD4C168D9
:10190000C943490606D4016921F04001016120461E
:1019100000F05BF920680169C94389060CD4C168ED
:10192000C943890608D4016921F0200101612046DC
:10193000BDE87040FFF7A7BD70BD704770B50446A5
:1019400090F838000D4601280DD0012684F8386043
:10195000022084F8390042B1042A18D0082A2AD07B
:101960000C2A4DD139E0022070BD206800F084FBC4
:101970002068816941F0080181612068816921F056
:1019800004018161206881692A69114311E020689E
:1019900000F09EFB2068816941F40061816120684C
:1019A000816921F480618161206881692A6941EA45
:1019B0000221816124E0206800F0BCFB2068C1693D
:1019C00041F00801C1612068C16921F00401C161D1
:1019D0002068C1692A69114311E0206800F0DAFB30
:1019E0002068C16941F40061C1612068C16921F4C6
:1019F0008061C1612068C1692A6941EA0221C1612F
:101A000084F83960002084F8380070BD10B50400F7
:101A100003D094F8390010B104E0012010BD204635
:101A200000F00CF8022084F83900211D206800F035
:101A3000B7FA012084F83900002010BD30B52549DF
:101A4000234D0468234B14390220032285B0AC4295
:101A500010D11C6844F002041C600B6843F00403BE
:101A60000B60CDE902020190C0200090694604920B
:101A7000194815E0194DAC4216D1164B1B1F1C68B6
:101A800044F004041C600B6843F008030B60CDE9CC
:101A90000202019004904FF44050009069461048B3
:101AA000FFF740F805B030BD0E4DAC42FAD11C68CE
:101AB00044F400341C600B6843F020030B604021A9
:101AC000CDE90010CDE90202694607480492E7E734
:101AD0000004014044380240000802400008004071
:101AE000000C024000440140001402407047000016
:101AF00010B504460068012200F0B2FA08492068D7
:101B0000884202D00749884203D1416C41F4004128
:101B100041642068016841F001010160002010BDAE
:101B2000000001400004014010B504460068002296
:101B300000F096FA114841F2111221689310814287
:101B400002D00F48814209D1086A104206D1086AC2
:101B5000184203D1486C20F4004048642068016AB0
:101B6000114206D1016A194203D1016821F0010135
:101B70000160012084F83900002010BD0000014000
:101B800000040140704790F838300022012B0AD041
:101B9000012380F8383041B1042909D008290AD03E
:101BA0000C290DD10AE00220704701684A6B07E05A
:101BB00001688A6B04E00168CA6B01E001680A6C85
:101BC000002180F8381010467047704710B50400A7
:101BD00003D094F8390010B104E0012010BD204674
:101BE00000F022F8022084F839002068C16821F44E
:101BF0000051C160204600F04BFB2068016921F4D0
:101C0000904101612068416921F02A014161206809
:101C1000C16841F40051C160002084F83A000120FD
:101C200084F83900002010BD7047FEE72DE9F04729
:101C30003A482DED028BFEF7E5FE3848FEF74EFEE2
:101C4000374CA066FF213548FEF7B8FEA06E4FF472
:101C5000FA656426A84201D9A56603E0A06E64284F
:101C600000D2A6662D484430FEF7CCFE2B48443007
:101C7000FEF734FE60662948FF214430FEF79EFEE1
:101C8000606EA84201D9656603E0606E642800D2E8
:101C90006666A06E40F226253A269FED228B4FF411
:101CA000966A40F24D374FF001084FF00009A84204
:101CB0000ED9A06E50450BD2E06A392808D9B0FB86
:101CC000F6F0FEF70BFB53EC182BFEF715FB02D3D7
:101CD000A06EB84202D9C4F8408001E0C4F8409038
:101CE000606EA8420ED9606E50450BD260693928EB
:101CF00008D9B0FBF6F0FEF7F1FA53EC182BFEF71B
:101D0000FBFA02D3606EB84205D9C4F84480BDEC3A
:101D1000028BBDE8F087C4F84490F8E75803002030
:101D2000440000209A99999999990140FEE7000092
:101D300010B500210448FFF7DBFE03480421BDE88D
:101D400010403C30FFF7D4BE0402002010B504213F
:101D50000448FFF7CDFE03480421BDE810403C30A5
:101D6000FFF7C6BE0402002010B500210448FFF7AB
:101D7000BFFE03480021BDE810403C30FFF7B8BE6D
:101D80000402002010B500210948FFF7CDFE042110
:101D90000748FFF7C9FE064800213C30FFF7C4FEA4
:101DA00003480421BDE810403C30FFF7BDBE0000F1
:101DB00004020020C82000F0B9FCFFF7B9FF3B4C3B
:101DC00000254FF49666606B012803D0E06C012873
:101DD0003ED04BE0D4E90E1050EA01020DD00128AC
:101DE00023D048B3EFD10129EDD1FFF7CBFFA06D90
:101DF000002828DD00F046FF27E0A06D00284FF006
:101E00000A0006DB00F092FCFFF7BCFF00F06EFF5B
:101E100005E000F08BFCFFF7B5FF00F0C7FFFFF710
:101E2000B1FF0A2000F082FCCDE70029DBD1FFF7EB
:101E3000A9FF00F0BBFF08E00129C4D1FFF7A2FF12
:101E400000F054FF01E000F07DFFFFF79BFFBAE7D1
:101E5000A06B58B9606C48B9304600F067FCFFF7DA
:101E600091FF00F0A3FFFFF78DFFE564A06C012850
:101E70000DD1E06B58B9206C48B9304600F056FCE3
:101E8000FFF780FF00F032FFFFF77CFFA564206CB6
:101E9000012805D0606C012805D0FFF749FF92E7C3
:101EA000FFF770FFCFE7FFF76DFFA3E744000020C7
:101EB00070470907090E002806DA00F00F0000F14C
:101EC000E02080F8141D704700F1E02080F8001435
:101ED000704701F0CFB90000174810B5016892B003
:101EE00041F0805101601548016841F440410160B2
:101EF00001200090019002248005CDE906401920C0
:101F000008904FF4B470CDE9090407200B9068469F
:101F1000FFF716F9FEF782FF0F20CDE90C04002031
:101F20000E904FF4A0500F90E002109005210CA8E5
:101F3000FEF7A4FF12B010BD403802400070004010
:101F40001048016841F4700101600F48016841F0D8
:101F5000010101600C4A00210832116002680B4B3C
:101F60001A400260031D0A4A1A60026822F48022A5
:101F7000026005480C30016002495806803908604B
:101F80007047000088ED00E000380240FFFFF6FED9
:101F9000103000240148FFF713BC00007C02002031
:101FA000F0B50268234B244D244E254F254C4FF0AD
:101FB000804C984209D0604507D0A84205D0B04275
:101FC00003D0B84201D0A04204D122F0700E4A687A
:101FD00042EA0E0298421BD0604519D0A84217D0A1
:101FE000B04215D0B84213D0A04211D0164DA8422D
:101FF0000ED0164DA8420BD0154DA84208D0154D55
:10200000A84205D0144DA84202D0144DA84203D1D5
:1020100022F44075CA682A4302608A68C2620A686C
:102020008262984201D0A04201D109690163012175
:102030004161F0BD00000140000400400008004084
:10204000000C0040000401400040014000440140F9
:102050000048014000180040001C004000200040E3
:1020600010B50123046A8B409C430462036A8A40D2
:102070001343036210BD000030B5026A22F0010272
:102080000262026A436884690D6824F07304254380
:1020900022F002048A6822430B4CA04202D00B4C6F
:1020A000A0420BD122F00804CA6823F440732243F3
:1020B0004C6922F004021C438B6923434360856111
:1020C00049684163026230BD0000014000040140E4
:1020D00030B5026A22F010020262026A4368846923
:1020E0000D6824F4E64444EA05248D6822F02002B9
:1020F00042EA05120D4DA84202D00D4DA8420ED164
:10210000CD6822F0800242EA05124D6923F4406353
:1021100043EA85038D6922F0400243EA8503436068
:10212000846149688163026230BD000000000140A3
:102130000004014030B5026A22F480720262036A30
:102140004268C46923F4007324F073050C682C43BF
:102150008D6843EA05230D4DA84202D00C4DA842DC
:102160000ED1CD6823F4006343EA05234D6922F4C0
:10217000405242EA05128D6923F4806342EA051257
:102180004260C4614968C163036230BD0000014020
:102190000004014030B5026A22F480520262046AEF
:1021A0004268C3690D6823F4E64343EA05238D685A
:1021B00024F4005444EA0534084DA84202D0084DE6
:1021C000A84204D14D6922F4804242EA851242605D
:1021D000C36149680164046230BD00000000014031
:1021E0000004014070B5046A24F0010404628469AB
:1021F000056A154EB04214D0B0F1804F11D0134E85
:10220000B0420ED0124EB0420BD0124EB04208D0A7
:10221000114EB04205D0114EB04202D0104EB04225
:1022200003D124F00304144303E024F0030242F03A
:10223000010424F0F00242EA031325F00A020A43E3
:102240008361026270BD0000000001400004004094
:1022500000080040000C0040000401400040014024
:102260000018004030B5046A24F010040462856947
:10227000046A25F4407545EA022222F4704242EADB
:10228000033224F0A00343EA01118261016230BDF0
:102290002DE9F04101680446086920F44052E068E5
:1022A000104308612268D06849F20C6188432369B1
:1022B000A168E569194363692B4319430143D16060
:1022C0002168486920F44072A06910434861E269BE
:1022D00064263225B2F5004F49494A4822681DD08C
:1022E000824201D08A426AD1FEF7D2FE00EBC001E1
:1022F00001EB00106168B0468900B0FBF1F1B1FB61
:10230000F8F6FEF7C5FE00EBC00101EB00106168B6
:102310008900B0FBF1F7FEF7BBFE69E0824201D015
:102320008A4219D1FEF7B4FE00EBC00101EB0010A8
:102330006168B0464900B0FBF1F1B1FBF8F6FEF779
:10234000A7FE00EBC00101EB001061684900B0FB83
:10235000F1F7FEF79DFE18E0FEF784FE00EBC001EA
:1023600001EB00106168B0464900B0FBF1F1B1FB30
:10237000F8F6FEF777FE00EBC00101EB0010616894
:102380004900B0FBF1F7FEF76DFE00EBC00101EB79
:10239000001061685FEA4101B0FBF1F1B1FBF8F0B8
:1023A0006FF01801484307EB800005EB0011B1FB0B
:1023B000F8F0216866F31F108860BDE8F081FEF731
:1023C00051FE00EBC00101EB00106168B0468900CE
:1023D000B0FBF1F1B1FBF8F6FEF744FE00EBC001F3
:1023E00001EB001061688900B0FBF1F7FEF73AFEDF
:1023F00000EBC00101EB001061688900CCE7000030
:102400000014014000100140FEE702E008C8121F5E
:1024100008C1002AFAD170477047002001E001C1CD
:10242000121F002AFBD170472DE9F04F89B0FEF74B
:102430009BFCFFF751FDFEF795F8DFF89892DFF867
:102440009882DFF898B2D9F80010A548B1FBF8F1EE
:10245000CBF8081000684E46A14940F00200086021
:1024600004204FF0010ACDE9040A00240320CDE93D
:10247000064004A99B48FEF755FB01220421994818
:10248000FEF767FC9848602544F23C1184600461C3
:10249000C0E90051A0F5807094490160594644F6A6
:1024A00020678968C0E90374C0E90114FFF7AEFA38
:1024B0008D490022A1F58070FFF740FA8A49042275
:1024C000A1F58070FFF73AFA874844F268211C3082
:1024D00084600461C0E90051E038854901605946D3
:1024E0008968C0E90374C0E90114FFF78FFA7E49D7
:1024F00000221C31A1F1E000FFF720FA7A49042202
:102500001C31A1F1E000FFF719FAFEF721F931685B
:102510005846B1FBF8F1491E816073484FF6FF76CB
:102520008838744AC0E903648460C0E90021FFF779
:10253000D6F818B10220FEF791F8FEE76A48574630
:1025400010380146C0E9004A8460C460002278382F
:10255000FFF740F8644904221039A1F17800FFF731
:1025600039F8614908221039A1F17800FFF732F8F3
:102570005D490C221039A1F17800FFF72BF85A4879
:1025800004218838FFF7F6F8574808218838FFF704
:10259000F1F855480C218838FFF7ECF85649D9F87E
:1025A0000000564AB0FBF1F14F48491E4C38CBF8B9
:1025B0000810C0E903648460C0E90021D846FFF731
:1025C00025FA4948002238300146846005600461DC
:1025D000022545608438FFF7B1F9434800214C38A3
:1025E000FFF786FA404846495430C0E90014846039
:1025F0000461846144628462C4620463C460C0E9AB
:1026000007474461FEF76DF93E480B210726C0E9F4
:102610000017C0E902640146CC38FEF7CFF839480C
:1026200039498838C0E900148460046184614462D7
:102630008462C4620463C460C0E907474461FEF772
:1026400050F930480E211030C0E90017C0E902648B
:1026500001469838FEF7B2F82A482C494438C0E9B8
:10266000001484600461846144628462C46204630F
:10267000C460C0E907474461FEF733F921480F21E0
:102680002030C0E90017C0E9026401466438FEF753
:1026900095F8CDE900544FF47A760294002332463F
:1026A0001BA11E48039400F0F9FFCDE900540294E9
:1026B000002332461AA11C48039400F0EFFF0120CA
:1026C00000F0EAFDC8F85C0000F032FD09B000201F
:1026D000BDE8F08F2C00002080841E004400002004
:1026E000303802400004024004030020000401408E
:1026F000000800400004004036000400004401408F
:10270000002201402404002000210140002001405B
:102710006F62737461636C65000000007D060008E1
:102720006D6F746F72000000B51D000810B500B920
:10273000012000F03FFC002010BD000070B50B4CE4
:10274000054620684560E0682168854205D2606BD7
:10275000BDE87040091D00F075BB206B091D00F03D
:1027600071FBE06A854200D2E56270BDB0000020D6
:1027700010B500F08BFB0C4C206880B90B4800F0C2
:1027800053FB0A48143000F04FFB0848A060143097
:10279000E06000220C210A2000F0A6FD2060BDE8C8
:1027A000104000F081BB0000E8000020A8050020D8
:1027B00070B5124E124C1AE000F0E4FC3068D0B153
:1027C00001F0E6F800F062FBF068C568281D00F033
:1027D00019FBA068401EA0606068401E606000F0A9
:1027E00063FB286B00F06AFB284600F067FB60681B
:1027F0000028E1D170BD01F0CBF8F8E7800500209A
:10280000B000002030B403680D46002B0CD0026CE1
:10281000C1688C18C46041688C4200D3C360C16831
:10282000284630BCFDF736BD30BC704770B5154644
:10283000026C044682B1BDB1E068FDF72BFDE16892
:10284000206C091AE1602268914202D26168081A7C
:10285000E060022D15D019E02068B8B9606800F07A
:1028600003FC0020606011E0A068FDF713FD216CFF
:10287000A0680844A0606168884207D32068A0600F
:1028800004E0A06B10B1A06B401EA063A06B401CC5
:10289000A06370BD0F4810B520F007010E4800235B
:1028A0000D4AC0E9001346F2F83008440C3A0838E3
:1028B0001060440702D0FDF7CDFCFEE743600360E3
:1028C00046F2F033C1E90003506808385060D8067A
:1028D000906010BDD805002004010020044C00BF0A
:1028E000FFF766FF20680128FAD900F03BFBF7E705
:1028F0005404002030B5114900E011460A688242B4
:10290000FBD34B685C18844203D14068184448608C
:10291000084643681C18944209D1084C0C3C2468B2
:10292000A24209D052681A4442600A6812680260E2
:10293000814200D0086030BD0460F9E70401002046
:1029400070B5002441600B4D0061914206D8D11A48
:102950008269914206D2011DE86807E09A4203D2DB
:10296000994201D3012403E0011DA86800F06AFA2E
:10297000204670BDE800002030B587B0254D3EE010
:10298000069C606910B1201D00F03CFA02A800F01E
:1029900089F80246049830B1012830D002281FD0AF
:1029A00003282CD128E00598A1690346014420465C
:1029B000FFF7C6FF012822D1616A20468847E069F7
:1029C00001281CD1002000900598A169002342181D
:1029D0001946204601F052F888B9FDF73BFCFEE7A6
:1029E0000598A06128B1811813462046FFF7A8FF7B
:1029F00005E0FDF72FFCFEE7204600F05FFA00231C
:102A00001A4604A9286800F093FC0028B8D107B042
:102A100030BD0000E80000202DE9FC410F460546CE
:102A200000F0B0FB01A800F03DF80446019818B191
:102A300000F0AEFFBDE8FC81194E37BBA54224D89B
:102A400000F0A6FFB0682746C068C468201D00F0EB
:102A5000D9F9E069012811D1A0692B4641193A46FC
:102A60002046FFF76DFF012808D1002003460146EC
:102A700000902A46204601F001F818B1616A20460C
:102A80008847D7E7FDF7E6FBFEE7291B306800F033
:102A900075FA00F07DFF0028CCD100F063FAC9E799
:102AA000E800002070B5054600F0CCFE064E044656
:102AB0007068844203D200F009F8012000E0002091
:102AC00028602046746070BDE8000020F8B5164DFF
:102AD0001FE0C068C4680668201D00F093F9616AB1
:102AE00020468847E069012813D1A0693044B042EC
:102AF00006D924616060211DA86800F0A3F908E0F0
:102B000000200346014600903246204600F0B6FF02
:102B100038B1A86801680029DBD1E968C5E902106D
:102B2000F8BDFDF797FBFEE7E80000200448406889
:102B3000401C02D0FDF78EFBFEE7FDF78BFBFEE7A6
:102B40000C010020074CA068016841B1C068002159
:102B5000D0F80000FFF760FFFFF70EFFF3E7012159
:102B60000020F7E7E800002070B5044600F08EF979
:102B700004F124050AE0606A58B1284600F0D6FE48
:102B800008B100F031FAA06C401EA064A06C0028CF
:102B9000F1DC4FF0FF36A66400F086F900F076F91C
:102BA00004F110050AE0206958B1284600F0BEFE85
:102BB00008B100F019FA606C401E6064606C002877
:102BC000F1DC6664BDE8704000F06EB92DE9F041BB
:102BD0000546002700F0D6FA1F4E306808B9FFF707
:102BE00059FEB068054232D18DB30835680704D06C
:102BF00005F00700C0F10800054445B37068854240
:102C000025D815480C3001460C6801E020460C46DA
:102C10006168A94202D221680029F7D131688C424B
:102C200015D007682168016060680837411B1029CA
:102C300004D9601941606560FFF75CFE60687168E7
:102C4000091A7160B168084360600020206000F0DC
:102C50009FFE3846BDE8F081F800002010B5031F44
:102C60004FF080741C601B1F1960191F044B0B6010
:102C700014390A60091F6FF0020244380A6010BD5F
:102C80002D2B000870B5184CE06D00282BD00023C8
:102C90006422194600F04CFB002824D00125606C0A
:102CA00001280AD0606B012807D0E06DBDE87040B4
:102CB00000231A46194600F0FFBBFFF763F80A200D
:102CC000FFF734FD6580FFF741F806E0012000F0D2
:102CD00071F96188A06D401AA06560883C28F5D321
:102CE000FFF750F8DBE770BD4400002070B5144CCE
:102CF000E06D002823D000236422194600F018FB61
:102D000000281CD0FFF73EF80A20FFF70FFD012531
:102D10006580FFF71BF840F2B63606E0012000F0B0
:102D200049F96188A06D401AA0656088B042F5D36A
:102D300000231A461946E06D00F0BEFB656570BDC4
:102D40004400002070B5184CE06D00282BD0002303
:102D50006422194600F0ECFA002824D00125206CEA
:102D600001280AD0606B012807D0E06DBDE87040F3
:102D700000231A46194600F09FBBFFF703F80A200C
:102D8000FFF7D4FCA580FEF7EFFF06E0012000F07E
:102D900011F9A188A06D0844A065A0883C28F5D34E
:102DA000FEF7F0FFDBE770BD4400002070B5144C67
:102DB000E06D002823D000236422194600F0B8FA01
:102DC00000281CD0FEF7DEFF0A20FFF7AFFC01252C
:102DD000A580FEF7C9FF4FF4617606E0012000F000
:102DE000E9F8A188A06D0844A065A088B042F5D399
:102DF00000231A461946E06D00F05EFB256570BDA4
:102E000044000020D0E901128A60D0E9011251602B
:102E100001694A68824201D182684A6000220261E7
:102E20000868401E0860704700F108014FF0FF324B
:102E3000C0E90112C16001610021016070470021F9
:102E40000161704730B50B685A1C02D000F10802CE
:102E500002E0026904E02246546825689D42FAD9DE
:102E600053684B6099608A60516008610168491C31
:102E7000016030BD42684A6093688B609368596016
:102E8000916008610168491C0160704710B5FDF749
:102E9000E1F904484168491C4160BFF34F8FBFF31B
:102EA0006F8F10BD0C01002003494868401E486028
:102EB00001D1FDF7D6B970470C01002070B500288C
:102EC0001DD00F4DA0F108046068A968084202D126
:102ED000FDF7C0F9FEE7226812B1FDF7BBF9FEE786
:102EE0008843606000F04EF9606869680844686073
:102EF0002046FFF7FFFCBDE8704000F049BD70BD03
:102F0000F800002006484FF47A710068B0FBF1F138
:102F10004FF0E020491E4161072101617047000028
:102F20002C00002010B5FDF79FF90C49102809D39B
:102F300000F1E02090F8F0030A78904202D2FDF709
:102F400089F9FEE706480068896800F4E060884275
:102F500002D9FDF77FF9FEE710BD00000C0100204B
:102F60000CED00E004494FF080500860BFF34F8F34
:102F7000BFF36F8F7047000004ED00E070B50D46A1
:102F80000446FFF783FF616C0020491C00D1606498
:102F9000A16C491C00D1A064FFF786FFA06B20B98B
:102FA000294604F1240000F047F82046BDE87040AF
:102FB000FFF7DABD10B502000FD000F0E3F80948C2
:102FC000C16800688C18001DFFF71CFF2046FFF742
:102FD000B5FB00F0DDFC002803D1BDE81040FFF791
:102FE000C1BF10BDB0000020014901200862704738
:102FF000B000002070B50C4680B10D4D2968183125
:10300000FFF720FF2868001DFFF7FCFE601C08D0BA
:10301000E8682044BDE87040FFF790BBFDF71AF95F
:10302000FEE72968BDE870400248091DFFF722BF8E
:10303000B00000209405002070B50D4670B1094C19
:1030400021681831FFF716FF2068001DFFF7DAFE30
:10305000E0682844BDE87040FFF770BBFDF7FAF860
:10306000FEE70000B000002010B504001BD0E16CAA
:10307000E06A884217D0201DFFF7C4FEE06CE062D2
:10308000C0F10C000849A061E06A0A69904200D9C9
:103090000861064900EB800001EB8000211DBDE8BE
:1030A0001040FFF7E7BE10BDB00000205404002020
:1030B00070B5040029D0154DE06A2968C96A8842B4
:1030C00023D22868124EC06AC0F10C00A061E16AE8
:1030D000606901EB810106EB8101884212D1201D5C
:1030E000FFF790FE2868C06AE0622969884200D92B
:1030F000286100EB800006EB8000211DBDE87040D8
:10310000FFF7B8BE2868C06AE06270BDB00000205A
:103110005404002010B528B104494A6A0260C96805
:10312000416010BDFDF796F8FEE70000B0000020FA
:103130001FB50024009401940294234680220DA11F
:103140000E48039400F0AAFA012803D100F074FCA1
:10315000012804D000280CD1FDF77CF8FEE7FDF72C
:1031600079F8074801214161C460BDE81F4000F0C3
:103170003FB81FBD49444C4500000000DD28000851
:10318000B000002002488169491C8161704700003D
:10319000B0000020144810B5816911B1012101620D
:1031A00010BD00210162114903E0D2B10269521E33
:1031B0000261026902EB820251F82220002A0269B0
:1031C000F3D002EB820201EB820101F108034A68AD
:1031D00052684A609A4201D152684A60D1680160DF
:1031E00010BDFDF737F8FEE7B000002054040020C2
:1031F0001CB51C4908780190FF20087008788DF8EC
:1032000000009DF80000184A00F0500010700720E0
:10321000906005E09DF800305B008DF80030401EA6
:103220009DF800301B06F5D4000200F4E0609060C9
:10323000019808700D48016841F47001016001684F
:1032400041F070410160FFF75DFE00205060FCF727
:10325000CFFF0748016841F040410160FCF7BEFF25
:1032600000201CBD00E400E00C01002020ED00E087
:1032700034EF00E010B5FCF7EDFF00F0EFFA18B105
:1032800004494FF080500860BDE810400020FCF772
:10329000E8BF000004ED00E070B505465020FFF7E0
:1032A00095FC04001DD0002161602160A160E160F7
:1032B000A1630120C4E90F01801E6064A06484F84A
:1032C0004D5004F11000FFF7AFFD04F12400FFF7AB
:1032D000ABFD00231A461946204600F0EDF82046C3
:1032E00070BDFCF7B7FFFEE72DE9F04117460E462B
:1032F000050019D05020FFF769FC040014D005FB2D
:1033000006F0401CFFF762FC206050B1C4E90F5684
:103310000121204600F09BF884F84D702046BDE85E
:10332000F0812046FFF7CAFDFCF794FFFEE700009E
:103330002DE9FF41002582B098460E46040002D0D8
:1033400000271EB107E0FCF785FFFEE7206C10B1F7
:10335000FCF780FFFEE7FFF799FDA06B50B3314605
:103360002046E568FFF74EFAB8F1000F10D0E5608F
:10337000606A38B104F1240000F0D8FA10B100BF3F
:10338000FFF7F0FDFFF790FD012006B0BDE8F081EA
:10339000A06B401EA063206810B900F03FFA606087
:1033A00020690028EED004F1100000F0BFFA0128D7
:1033B000E6D0E7E7049808B11DB106E0FFF774FD19
:1033C0001DE06846FFF7A6FE0125FFF76DFDFFF73C
:1033D000D9FEFFF75BFD606C401C00D16764A06CF8
:1033E000401C00D1A764FFF75FFD04A9684600F008
:1033F00029F930B12046FFF7B7FB00F0C9FA0020E9
:10340000C3E7FFF743FDA06B38B1FFF74DFD204642
:10341000FFF7AAFB00F0BCFA9DE7FFF745FD206827
:1034200030B9FFF733FD6068FFF742FEFFF73CFD60
:1034300004F124000499FFF7DDFD2046FFF794FB1B
:1034400000F0A6FA002886D1FFF78CFD83E770B55F
:103450000D46040023D0FFF719FDD4E90F202168A1
:1034600002FB001161600021A1632168A1600A468E
:10347000D4E90F01401E00FB01214FF0FF30E16055
:103480006064A06404F1100065B1FFF7CDFC04F1A5
:103490002400FFF7C9FCFFF707FD012070BDFCF712
:1034A000D9FEFEE721690029F5D000F03FFA012896
:1034B000F1D1FFF757FDEEE72DE9FF41002682B07D
:1034C0001D468846040003D0B8F1000F03D007E082
:1034D000FCF7C0FEFEE7206C10B1FCF7BBFEFEE778
:1034E0000027022D05D1E06B012802D0FCF7B2FEC7
:1034F000FEE7FFF7CBFCA06BE16B884205D3022D02
:1035000003D00498B0B1C6B11BE02A46414620461C
:10351000FFF78CF9606A38B104F1240000F006FA74
:10352000012801D1FFF71EFDFFF7BEFC012006B008
:10353000BDE8F081FFF7B8FC1DE06846FFF7EAFD43
:103540000126FFF7B1FCFFF71DFEFFF79FFC606C43
:10355000401C00D16764A06C401C00D1A764FFF739
:10356000A3FC04A9684600F06DF830B12046FFF7CF
:10357000FBFA00F00DFA0020D9E7FFF787FCA06BFB
:10358000E16B884210D1FFF78FFC04F11000049921
:10359000FFF730FD2046FFF7E7FA00F0F9F90028C1
:1035A000A7D1FFF7DFFCA4E7FFF77EFC2046FFF77B
:1035B000DBFA00F0EDF99CE72DE9F0411D461646D7
:1035C0000F46040001D01FB107E0FCF743FEFEE701
:1035D000206C10B1FCF73EFEFEE7022D05D1E06B3A
:1035E000012802D0FCF736FEFEE7FFF79BFCFCF754
:1035F00031FE8046A06BE16B884208D3022D06D0D5
:1036000000244046FCF72DFE2046BDE8F0812A4606
:1036100039462046FFF70AF9A06C401C04D0A06C84
:10362000401CA0640124ECE7606A0028FAD004F191
:10363000240000F07BF90028F4D0002EF2D0012005
:103640003060EFE770B50D46040019D0DDB1FFF72B
:103650001DFC114AD1682868431C0FD02368526AA8
:10366000934202D062688A4210D96268891A814204
:103670000CD2401A28602046FFF74CFD002406E0DB
:10368000FCF7E8FDFEE7FCF7E5FDFEE70124FFF7A8
:103690000BFC204670BD0000B00000202DE9FF5F4C
:1036A0001546DDE90E68109F8A465FEA000B04D0DC
:1036B0000C2E05D3FCF7CEFDFEE7FCF7CBFDFEE7B5
:1036C0005020FFF783FA04001CD0A80081469FB168
:1036D0003846206398B1A5224946FCF7EDFD6FF00E
:1036E0000301206B01EB8501084420F007077807F0
:1036F0000BD0FCF7AFFDFEE7FFF768FAE9E72046DD
:10370000FFF7DCFB4FF0FF347EE0514635460020EA
:1037100022180B5C82F834300A5C12B1401C10286D
:10372000F6D3002184F843100C2D00D30B25E5625D
:10373000201DE564FFF783FB04F11800FFF77FFB12
:103740002461C5F10C016462A16159463846039AAF
:10375000FFF784FA2060B8F1000F01D0C8F80040EC
:10376000FFF794FB2A4DA868401CA8602868DFF882
:10377000A48010B1686938B32BE02C60A8680128D8
:1037800027D1002707EB870108EB8100FFF74CFBEF
:103790007F1C0C2FF6D31F48F030FFF745FB1E4867
:1037A000FFF742FB1C481430FFF73EFB1A48283055
:1037B000FFF73AFB18483C30FFF736FB1648143841
:1037C00028631430686304E02868C06AB04200D8F7
:1037D0002C60A86A401CA8626064E06A296988427B
:1037E00000D9286100EB800108EB8100211DFFF763
:1037F00041FB0124FFF758FB686928B12868C06ABB
:10380000B04201D2FFF7AEFB04B02046BDE8F09F06
:10381000B000002054040020580500200148006832
:1038200070470000B00000200548416919B1806967
:1038300018B1022070470020704701207047000037
:10384000B000002010B5FFF721FB0348C468FFF764
:103850002BFB204610BD0000B00000202DE9F047F2
:10386000304C0026A06940B1E069401CE061206A4C
:1038700000B101263046BDE8F087E068401CE060FA
:10388000E7684FF0FF39A7B9206B006810B1FCF76B
:10389000E1FCFEE7206B616B21636063606A401CA2
:1038A0006062206B0068E8B1206BC068C068406847
:1038B000E062E06ADFF87080874209D3206B00681D
:1038C00090B1206BC068C568686887420ED2E0621C
:1038D0002068C06A00EB800158F821000128C6D991
:1038E0000126C4E74846E3E74846F0E7281DFFF70E
:1038F00089FAA86A18B105F11800FFF783FAE86A97
:103900002169884200D9206100EB800108EB810029
:10391000291DFFF7AFFAE86A2168C96A8842CDD34A
:103920000126CBE7B00000205404002070B5C06829
:10393000C46854B104F118000646FFF763FA114D4C
:10394000A86928B13146104810E0FCF783FCFEE777
:10395000201DFFF757FAE06A2969884200D92861DB
:103960000A4900EB800001EB8000211DFFF782FA7D
:10397000E06A2968C96A884202D30120286270BDC2
:10398000002070BDB00000206C0500205404002011
:103990002DE9F047264C0027A06938B1FFF776FAE9
:1039A000A069401EA061A06918B13BE0FCF752FC81
:1039B000FEE7A1681F4E0120A1B3A6F58C798046D1
:1039C0003068E0B1F068C56805F11800FFF71AFA31
:1039D000281DFFF717FAE86A2169884200D920619B
:1039E00000EB800109EB8100291DFFF743FAE86A2B
:1039F0002168C96A8842E3D3C4F82080E0E7E0691F
:103A000050B14546E06938B1FFF728FF00B12562A3
:103A1000E069401EE061F5E7206A012802D1012734
:103A2000FFF7A0FAFFF740FA3846BDE8F08700003C
:103A3000B00000206C0500201FB5FEF799FE0B4872
:103A4000006870B100200A21CDE900100290034601
:103A500003904FF4807206A10748FFF71FFE00286D
:103A600002D1FCF7F7FBFEE704B010BDE800002030
:103A7000546D722053766300452B0008FEB5104C40
:103A80001D46034627680020089E002F08D08DE8B9
:103A90000E0035B100232A4669463846FFF78CFDF3
:103AA000FEBDFFF7C1FE01284FF0000305D0002244
:103AB00069462068FFF700FDFEBD3246F8E70000CA
:103AC000E800002000040040000800020700080091
:103AD00007000800000100020004000800000000C8
:103AE0000102030401020304060708090C3B000855
:103AF00000000020180100000A240008243C0008EF
:103B000018010020B86C00001A2400080000000012
:103B10000048004000140140000402400018024028
:103B20000004024000180240002002400020024031
:103B300000200240002002400024F40000000000A9
:103B4000000000000102030406070809000000004D
:103B5000030300000000000000000000000000005F
:103B60000000000000000000000000000000000055
:103B70000000000000000000000000000000000045
:103B80000000000000000000000000000000000035
:103B90000000000000000000000000000000000025
:103BA0000000000000000000000000000000000015
:103BB00064000000000000000000000000000000A1
:103BC00000000000000000000000000000000000F5
:103BD00000000000000000000000000000000000E5
:103BE0000000000000000000FFFFFFFF00000000D9
:103BF00000000000000000000000000000000000C5
:103C00000000000000000000F86300000000000059
:103C1000000000000000000000000000AAAAAAAAFC
:043C200000000000A0
:04000005080001AD41
:00000001FF
