:020000040800F2
:100000008806002031070008390700083B07000870
:100010003D0700083F0700084107000800000000F6
:10002000000000000000000000000000430700087E
:10003000450700080000000047070008D503000836
:100040004B0700084B0700084B0700084B07000848
:100050004B0700084B0700084B0700084B07000838
:100060004B0700084B0700084B0700084B07000828
:100070004B0700084B0700084B0700084B07000818
:100080004B0700084B0700084B0700084B07000808
:100090004B0700084B0700084B0700084B070008F8
:1000A0004B0700084B0700084B0700084B070008E8
:1000B0004B0700084B0700084B0700084B070008D8
:1000C0004B0700084B0700084B0700084B070008C8
:1000D0004B0700084B0700084B0700084B070008B8
:1000E0004B0700084B0700084B0700084B070008A8
:1000F0004B0700084B0700084B0700084B07000898
:100100004B0700084B0700084B0700084B07000887
:100110004B0700084B0700084B0700084B07000877
:100120004B0700084B0700084B0700084B07000867
:100130004B0700084B0700084B0700084B07000857
:100140004B0700084B0700084B0700084B07000847
:100150004B0700084B0700084B0700084B07000837
:100160004B0700084B0700084B0700084B07000827
:100170004B0700084B0700084B0700080000000071
:100180004B0700084B0700084B0700084B07000807
:100190004B0700084B0700084B0700084B070008F7
:1001A0004B0700084B0700084B07000800F002F857
:1001B00000F03CF80AA090E8000C82448344AAF1C5
:1001C0000107DA4501D100F031F8AFF2090EBAE8C3
:1001D0000F0013F0010F18BFFB1A43F0010318477B
:1001E0003C0700005C070000103A24BF78C878C1C3
:1001F000FAD8520724BF30C830C144BF04680C602D
:10020000704700000023002400250026103A28BF74
:1002100078C1FBD8520728BF30C148BF0B60704778
:100220001FB500F072FB1FBD10B510BD00F033FB11
:100230001146FFF7F5FF00F05EF800F051FB03B444
:10024000FFF7F2FF03BC00F059FB000010B50446B5
:10025000634A32F81410634A52F82400012200F075
:100260001EFA10BD10B504465D4A32F814105D4AFE
:1002700052F82400002200F012FA10BD10B586B02A
:10028000044634B95848006840F480705649086004
:1002900017E0012C06D15448006840F480705249A0
:1002A00008600EE0022C06D14F48006840F48070D0
:1002B0004D49086005E04C48006840F480704A49A8
:1002C0000860474830F81400019001200290039024
:1002D00002200490434951F8240001A900F08AF853
:1002E0003F4A32F814103F4A52F82400012200F02D
:1002F000D6F906B010BD08B507204FF0E02108611F
:100300003A48486100208861FFF7B8FF0120FFF7F5
:10031000B5FF0220FFF7B2FF0320FFF7AFFF4DE06C
:100320000120FFF79FFF0020009002E00098401C92
:1003300000902F4900988842F8D30220FFF792FFDF
:100340000020009002E00098401C0090284900988E
:100350008842F8D30320FFF785FF0020009002E0D9
:100360000098401C0090224900988842F8D3012050
:10037000FFF76CFF0020009002E00098401C009006
:100380001B4900988842F8D30220FFF75FFF002046
:10039000009002E00098401C0090154900988842A7
:1003A000F8D30320FFF752FF0020009002E00098EE
:1003B000401C00900E4900988842F8D3B0E710B571
:1003C0000446074A32F81410064A52F8240000F096
:1003D0006BF910BD10B50020FFF7F1FF10BD000054
:1003E000140900080000002030380240FF23F40008
:1003F0003F420F00F0B502460B46002500240020C6
:100400000021DCE0012606FA01F51E6806EA050473
:10041000AC426ED15E68022E02D05E68122E13D1FD
:10042000CF0802F1200656F827004E07F70E0F26D8
:10043000BE40B0434F07FF0E1E69BE403043CF0899
:1004400002F1200646F8270010684F000326BE4040
:10045000B0431E7906F003064F00BE4030431060E3
:100460005E68012E08D05E68022E05D05E68112EEF
:1004700002D05E68122E13D190684F000326BE4052
:10048000B0434F00DE68BE403043906050680126A4
:100490008E40B0431E79C6F300168E403043506044
:1004A000D0684F000326BE40B0434F009E68BE4058
:1004B0003043D0605E6806F08056B6F1805F7DD133
:1004C0008E4E366846F480468C4F3E608C4E8F08C8
:1004D00056F827008E07370F0F26BE40B043894ECF
:1004E000B24201D100262EE0874EB24202D101264F
:1004F00029E063E0854EB24201D1022623E0844E1A
:10050000B24201D103261EE0824EB24201D104263E
:1005100019E0814EB24201D1052614E07F4EB2426D
:1005200001D106260FE07E4EB24201D107260AE035
:100530007C4EB24201D1082605E07B4EB24201D189
:10054000092600E00A268F073F0FBE4030436C4E5D
:100550008F0846F82700754E3068A0435E6806F4A1
:100560008036B6F5803F00D12043704E3060361D96
:100570003068A0435E6806F40036B6F5003F00D14F
:1005800020436A4E361D3060361D3068A0435E68D9
:1005900006F48016B6F5801F00D12043634E08365E
:1005A0003060361D3068A0435E6806F40016B6F56C
:1005B000001F00D120435D4E0C363060491C1029CD
:1005C000FFF420AFF0BDF0B502460B460024002139
:1005D0000025002058E0012606FA00F403EA040191
:1005E000A14250D116684FEA400C032707FA0CF7D6
:1005F000BE431660C70802F1200656F82760470779
:100600004FEAD76C0F2707FA0CF7BE434FEAD00C1E
:1006100002F1200747F82C6096684FEA400C032748
:1006200007FA0CF7BE439660576801268640B74329
:100630005760D6684FEA400C032707FA0CF7BE4311
:10064000D6608607370F0F2606FA07F52C4E870867
:1006500056F82770AF434FEA900C46F82C70334E93
:1006600036688E43314F3E603E1D36688E433F1DD7
:100670003E603E1D36688E433F1D3E603E1D36681F
:100680008E433F1D3E60401C1028A4D3F0BD02469F
:1006900013690B400BB1012000E0002070470AB144
:1006A000018300E04183704742694A4042617047DC
:1006B00008B502464FF4803000900098084300903F
:1006C0000098D061D1610098D061D0690090D06964
:1006D00000F4803008B1002008BD0120FCE770471D
:1006E00010B50446114814300068204028B10F4866
:1006F000143004602046FFF7F2FF10BD443802407A
:100700000838014000000240000402400008024096
:10071000000C024000100240001402400018024089
:10072000001C02400020024000240240003C014026
:100730000948804709480047FEE7FEE7FEE7FEE775
:10074000FEE7FEE7FEE7FEE7FEE7FEE704480549B1
:10075000054A064B7047000071070008AD0100080C
:1007600088000020880600208802002088020020DF
:100770003F48006840F470003D4908603D4800680B
:1007800040F001003B49086000203A490831086008
:100790003848006838490840364908603748091D1C
:1007A0000860081F006820F48020091F08600020EE
:1007B00030490C3108604FF000602D4980390860E5
:1007C000704770B500200022022300240221294D29
:1007D00008352D6805F00C0020B1042806D0082843
:1007E00034D107E0264D274E356033E0264D254EA7
:1007F00035602FE01F4D2D1D2D68C5F380541D4D14
:100800002D1D2D6805F03F0154B11F4DB5FBF1F5CD
:10081000184E361D3668C6F3881605FB06F209E049
:10082000174DB5FBF1F5134E361D3668C6F3881625
:1008300005FB06F20F4D2D1D2D68C5F301456D1CFE
:100840006B00B2FBF3F50F4E356003E00C4D0D4E1F
:10085000356000BF00BF074D08352D68C5F303158F
:100860000A4E705D074D2D68C540064E356070BD5F
:1008700088ED00E000380240FFFFF6FE1030002453
:100880000024F4001400002000127A001800002058
:10089000704770477047754600F02CF8AE4605006B
:1008A0006946534620F00700854618B020B5FFF78B
:1008B0004DFFBDE820404FF000064FF000074FF01D
:1008C00000084FF0000B21F00701AC46ACE8C0096E
:1008D000ACE8C009ACE8C009ACE8C0098D46704777
:1008E00010B50446AFF300802046BDE81040FFF786
:1008F000A6BC0000004870472800002001491820CD
:10090000ABBEFEE72600020070474FF04070E1EEFC
:10091000100A704700010002000400083C090008AA
:100920000000002028000000E80100086409000819
:100930002800002060060000040200080020024099
:100940000020024000200240002002400000000081
:100950000024F40000000000000000000102030475
:040960000607080975
:04000005080001AD41
:00000001FF
